:020000040800F2
:10000000581B0020D1010008350C0008F905000834
:10001000690B000899020008191A00080000000086
:100020000000000000000000000000009112000825
:10003000E10300080000000009120008E9170008A9
:10004000EB010008EB010008EB0100085D1200085D
:10005000EB010008EB010008EB010008EB010008D0
:10006000EB010008EB010008EB010008EB010008C0
:10007000EB010008EB010008EB010008EB010008B0
:10008000EB010008EB010008EB010008EB010008A0
:10009000EB010008EB010008EB010008EB01000890
:1000A000EB010008EB010008EB010008EB01000880
:1000B0004D180008EB010008EB010008EB010008F7
:1000C000EB010008EB010008EB010008EB01000860
:1000D000EB010008EB010008EB010008EB01000850
:1000E000EB010008EB010008EB01000800F002F84A
:1000F00000F05EF80AA090E8000C82448344AAF164
:100100000107DA4501D100F053F8AFF2090EBAE861
:100110000F0013F0010F18BFFB1A43F0010318473B
:10012000642200008422000010F8013B0A4413F00E
:10013000030408BF10F8014B1D1108BF10F8015B44
:10014000641E05D010F8016B641E01F8016BF9D133
:10015000002D15D010F8014B03F00C030C2BA1EB74
:1001600004040ABF10F8013BA4EB8314A4EB03249E
:1001700005F1010314F8016B5B1E01F8016BF9D561
:10018000914238BF10F8013BD1D3704700230024BF
:1001900000250026103A28BF78C1FBD8520728BF97
:1001A00030C148BF0B6070471FB51FBD10B510BDF3
:1001B00000F031F81146FFF7F7FF01F0B1FC00F055
:1001C0004FF803B4FFF7F2FF03BC00F053F8000050
:1001D0000948804709480047FEE7FEE7FEE7FEE7DB
:1001E000FEE7FEE7FEE7FEE7FEE7FEE70448054917
:1001F000054A064B70470000ED170008ED000008A7
:1002000058150020581B00205817002058170020B0
:10021000704770477047754600F028F8AE460500F5
:100220006946534620F00700854618B020B5FFF711
:10023000DDFFBDE820404FF000064FF000074FF013
:1002400000084FF0000B21F00701AC46ACE8C009F4
:10025000ACE8C009ACE8C009ACE8C0098D467047FD
:100260000446AFF300802046FFF7ABFF004870471D
:10027000F814002001491820ABBEFEE7260002005A
:100280007047014600BF080900EB8000420001F002
:100290000F001044C0B2704700BFFEE710B54FF426
:1002A0008051494800F09BF9C8B948480068401C93
:1002B00046490860084600680A2815DB0A200860DD
:1002C0004348007830B9012041490870022081F884
:1002D000200009E000203E4981F8200004E00020D1
:1002E0003A4908603A4908704FF40041364800F036
:1002F00076F9C8B937480068401C36490860084696
:1003000000680A2815DB0A2008603148007A30B9F5
:1003100001202F490872032081F8200009E0002005
:100320002B4981F8200004E000202A490860284970
:1003300008724FF48041244800F051F9C0B92648B2
:100340000068401C24490860084600680A2814DB3D
:100350000A2008601E48007C28B901201C49087446
:1003600081F8200009E00020194981F8200004E00C
:10037000002019490860164908744FF400511248CA
:1003800000F02DF9C8B915480068401C13490860F1
:10039000084600680A2815DB0A2008600C48007E21
:1003A00030B901200A490876042081F8200009E0CC
:1003B0000020074981F8200004E000200749086078
:1003C0000349087610BD0000000C01401800002011
:1003D000B81400201C000020200000202400002071
:1003E00070470146002204E0501CC2B2A1F10A008D
:1003F000C1B20A29F8DA100741EA1060704700001C
:1004000008B504480823602200210090202000F055
:1004100059FC08BDDE0D002010B51F4800781F49AB
:100420000978884204D000201D49096881F820001D
:100430001B48006890F8200001280FD11948006877
:1004400060B90120174908604FF42F7016490880E1
:1004500016A204211E2000F0A5FD1BE01048006834
:1004600090F82000012810D10E48006801280CD116
:1004700000200C4908600FA204211E2000F092FD0C
:100480004FF461500849088004E00CA202211320B7
:1004900000F088FD10BD00007914002078140020C1
:1004A000E013002088140020340400404F50454ED3
:1004B00020000000436C4F5345000000466C617300
:1004C00068204C69676E74002DE9F04102460025F2
:1004D0000026002000230024002791F803C00CF020
:1004E0000F0591F803C00CF0100CBCF1000F03D005
:1004F00091F802C04CEA050591F800C0BCF1000F6C
:1005000031D0146800202BE04FF0010C0CFA00F3FE
:10051000B1F800C00CEA03069E4220D183004FF0E0
:100520000F0C0CFA03F7BC4305FA03FC4CEA040475
:1005300091F803C0BCF1280F06D14FF0010C0CFA62
:1005400000FCC2F814C00AE091F803C0BCF1480FE7
:1005500005D14FF0010C0CFA00FCC2F810C0401C91
:100560000828D1D31460B1F800C0BCF1FF0F34DD0E
:10057000546800202EE000F1080C4FF0010808FA42
:100580000CF3B1F800C00CEA03069E4221D18300AF
:100590004FF00F0C0CFA03F7BC4305FA03FC4CEACE
:1005A000040491F803C0BCF1280F05D100F1080C38
:1005B00008FA0CF8C2F8148091F803C0BCF1480F97
:1005C00007D100F1080C4FF0010808FA0CF8C2F846
:1005D0001080401C0828CED35460BDE8F08102464C
:1005E000002093680B400BB1012000E00020704711
:1005F000416170470161704700BFFEE708B575486B
:10060000007875490978884204D000207349096848
:1006100081F8200000F038FE714908606F480068DA
:1006200090F82000022808D16E48007828B90120EF
:100630006C49087000F02AFB12E06848006890F8E6
:10064000200002280CD167480078012808D16548AD
:100650000078012801D100F027FB002061490870D3
:100660006048007800287CD15D48006880780A21C5
:1006700090FBF1F05C4908705948006880780A21C5
:1006800090FBF1F201FB12005849087054480068D1
:1006900040780A2190FBF1F05549087050480068F5
:1006A00040780A2190FBF1F201FB120051490870D9
:1006B0004B48006800780A2190FBF1F04E49087021
:1006C0004748006800780A2190FBF1F201FB120014
:1006D0004A49087048480078022803DD48480078F5
:1006E00045490870444800784549087042480078F8
:1006F00000EBC00000EB4000424901EB8000082302
:10070000122202210090002000F0DCFA3B48007821
:1007100000EBC00000EB40003A4901EB80000823E9
:10072000252202210090132000F0CCFA364806233F
:100730002C2203210090262000F0C4FA2C480078D7
:1007400000EBC00000EB40002E4901EB80000823C5
:100750003F22022100902D2000F0B4FA25480078B5
:1007600000E035E000EBC00000EB4000254901EB64
:1007700080000823522202210090402000F0A2FABB
:1007800021480623592203210090532000F09AFAB1
:100790001548007800EBC00000EB4000194901EB60
:1007A000800008236C22022100905A2000F08AFA6F
:1007B0000E48007800EBC00000EB4000114901EB4F
:1007C000800008237F22022100906D2000F07AFA39
:1007D00008BD00007914002078140020E0130020E8
:1007E000E4130020871400208014002081140020CE
:1007F000821400208314002084140020851400201B
:1008000086140020AC000020A40D002010B5044682
:1008100080210F48FFF7ECFE00F080F824B1802122
:100820000B48FFF7E7FE03E080210948FFF7E0FEF1
:10083000012000F00FF840210548FFF7DBFE012002
:1008400000F008F840210248FFF7D2FE10BD00007A
:10085000000C014010B5002106E0062200BF130085
:10086000A2F10102FBD1491C8142F6D310BD000068
:1008700008B50121082000F0D9FCC020ADF8000027
:1008800014208DF8030003208DF802006946024809
:10089000FFF71AFE08BD0000000C014070B50546C8
:1008A000002400F029F8002618E040211148FFF745
:1008B0009FFE0220FFF7CEFF40210E48FFF79AFE71
:1008C0006006040E80210B48FFF789FE08B1601C0A
:1008D000C4B20120FFF7BEFF701CC6B2082EE4DBD5
:1008E0001DB90120FFF792FF02E00020FFF78EFF05
:1008F000204670BD000C014008B58020ADF8000016
:1009000004208DF8030003208DF802006946024898
:10091000FFF7DAFD08BD0000000C014008B580209B
:10092000ADF8000014208DF8030003208DF80200BC
:1009300069460248FFF7C8FD08BD0000000C0140F1
:1009400010B5FFF7EBFF80210A48FFF753FE402167
:100950000848FFF74FFE0120FFF77CFF8021054884
:10096000FFF746FE0120FFF775FF40210148FFF722
:100970003FFE10BD000C014010B5FFF7CFFF402136
:100980000A48FFF735FE80210848FFF731FE0120B5
:10099000FFF760FF40210548FFF72CFE8021034848
:1009A000FFF728FE0120FFF755FF10BD000C0140A6
:1009B00010B5FA2480211248FFF71CFEFFF79CFFB8
:1009C0000120FFF747FF40210D48FFF713FE0120EC
:1009D000FFF740FF07E0601E80B2040003D0FFF77E
:1009E000CBFF012010BD80210548FFF7F8FD00284E
:1009F000F1D140210248FFF7FBFD0020F2E70000A3
:100A0000000C014070B50446FFF788FF40211348F1
:100A1000FFF7EEFD00251DE004F0800020B18021ED
:100A20000E48FFF7E7FD03E080210C48FFF7E0FDEB
:100A30006006040E0120FFF70DFF40210748FFF775
:100A4000D9FD0120FFF706FF40210448FFF7D0FD44
:100A5000681CC5B2082DDFDB70BD0000000C014032
:100A600030B589B005460C460121022000F0CEFBCE
:100A70000121042000F0DAFB4020ADF8200018200E
:100A80008DF8230003208DF8220008A91948FFF7EC
:100A90001BFDA8B2ADF81800A0B2ADF814000020FC
:100AA000ADF81A00ADF8160005A9134800F062FF72
:100AB0006020ADF804000120ADF806000020ADF87C
:100AC0000A00ADF80C0001A90B4800F0FDFE08215A
:100AD000094800F045FF0121074800F0C9FE012147
:100AE000054800F0D4FE4FF46150034934310880CA
:100AF00009B030BD000801400004004010B503A259
:100B00000221132000F04EFA10BD000070697463DA
:100B10006820616E676C650010B503A20221132086
:100B200000F040FA10BD000072617720616E676CC2
:100B30006500000008B504480823602200210090E9
:100B4000202000F0BFF808BDDE11002010B503A280
:100B50000221132000F026FA10BD000079617720F1
:100B6000616E676C6500000000BFFEE710B500F025
:100B700087FB2B4908600846006890F82000012890
:100B800006D002280FD0032818D004282CD120E04A
:100B90002448007800EB4000234901EB8000C07836
:100BA0002049087021E01F48007800EB40001E49F2
:100BB00001EB800000791B49087016E019480078A5
:100BC00000EB4000184901EB80008078154908705F
:100BD0000BE01448007800EB4000134901EB800063
:100BE00040781049087000E000BF00BF0F4800784F
:100BF0000C490978884201D000F028F809480078AB
:100C000000EB4000084901EB80008068084908605B
:100C1000084600688047034800780449087010BD02
:100C2000E013002078140020E8130020791400203D
:100C30007C1400207047000002490143024A116001
:100C4000704700000000FA050CED00E070B50024CC
:100C500019E004F1B001C8B2002100F0BFF9002191
:100C6000084600F0BBF90021102000F0B7F900257C
:100C700005E00121002000F0B1F9681CC5B2802D0B
:100C8000F7DB601CC4B2082CE3DB70BD10B500219B
:100C90008D2000F0A3F90021102000F09FF9002121
:100CA000AE2000F09BF910BD10B500218D2000F0A2
:100CB00095F90021142000F091F90021AF2000F0F7
:100CC0008DF910BD2DE9F05F06460F4690461C4693
:100CD000DDF828A04FF0000BE11704EB5171C910AB
:100CE000A4EBC10131B92046E11704EB5171C1F306
:100CF000C70506E02046E11704EB5171C910491CF5
:100D0000CDB23D4615E02946304600F0B9F8B1466F
:100D10000BE059460BF1010B1AF80100012100F01C
:100D20005DF909F1010000F0FF09C145F1DB681C24
:100D3000C5B2A542E7DBBDE8F09F000008B5012180
:100D4000042000F073FA1F20ADF8000010208DF889
:100D5000030003208DF8020069464848FFF7B4FB02
:100D600004214648FFF746FC642000F0B3FE04214E
:100D70004248FFF73DFC642000F0ACFE04213F48F0
:100D8000FFF738FC0021AE2000F028F900210846CA
:100D900000F024F90021102000F020F9002140206B
:100DA00000F01CF90021812000F018F90021CF206B
:100DB00000F014F90021A12000F010F90021C82052
:100DC00000F00CF90021A62000F008F90021A8206D
:100DD00000F004F900213F2000F000F90021D320A9
:100DE00000F0FCF80021084600F0F8F80021D520BA
:100DF00000F0F4F80021802000F0F0F80021D92064
:100E000000F0ECF80021F12000F0E8F80021DA20F1
:100E100000F0E4F80021122000F0E0F80021DB20CF
:100E200000F0DCF80021402000F0D8F8002120205C
:100E300000F0D4F80021022000F0D0F800218D202D
:100E400000F0CCF80021142000F0C8F80021A42004
:100E500000F0C4F80021A62000F0C0F80021AF2067
:100E600000F0BCF80021AF2000F0B8F8FFF7EEFE6C
:100E70000021084600F004F808BD00000008014009
:100E800070B504460D4605F1B001C8B2002100F06E
:100E9000A5F8102141EA1410002100F09FF804F099
:100EA0000F0141F00100002100F098F870BD000032
:100EB0002DE9F04107460E46904600250024A8F192
:100EC0002000C5B27F2F02DD0027B01CC6B231461C
:100ED0003846FFF7D5FF002408E004EB05110F4A60
:100EE000505C012100F07AF8601CC4B2082CF4DBDD
:100EF000701CC1B23846FFF7C3FF002409E004EBC1
:100F000005110831054A505C012100F067F8601CAA
:100F1000C4B2082CF3DBBDE8F0810000941D00088A
:100F20002DE9FF5F074691461D460E9E4FF0000AD1
:100F3000002433E0281B401EC1B20A2000F00BFE43
:100F4000B9FBF0F00A21B0FBF1F201FB1208BAF193
:100F5000000F13D1681EA04210DDB8F1000F0BD1B5
:100F6000B34606EBDB71491001FB0471C8B22022C5
:100F70000199FFF79DFF0FE04FF0010AB34606EB22
:100F8000DB71491001FB0471C8B208F13001CAB22B
:100F90000199FFF78DFF00BF601CC4B2AC42C9DBF2
:100FA000BDE8FF9F2DE9F04104460F461546002697
:100FB0000EE0AA5D39462046FFF77AFF04F10800EB
:100FC000C4B2782C02DD0024B81CC7B2701CC6B2B3
:100FD000A85D0028EDD1BDE8F081000070B50446A1
:100FE0000E4626B108211848FFF704FB03E008214C
:100FF0001548FFF7FDFA10211348FFF7F9FA00250D
:1010000017E001211048FFF7F3FA04F0800020B147
:1010100002210D48FFF7EEFA03E002210A48FFF72C
:10102000E7FA01210848FFF7E5FA6006040E681C9C
:10103000C5B2082DE5DB10210348FFF7DBFA0821D4
:101040000148FFF7D7FA70BD000801402DE9F041D3
:1010500006460C4615463046FFF7C3F907463946A3
:10106000082000F0B7F82046FFF7BBF907463946DD
:10107000072000F0AFF82846FFF7B3F907463946D6
:10108000052000F0A7F8BDE8F08110B50021084662
:1010900000F0A0F80021012000F09CF881210D2033
:1010A00000F098F8002231210F2000F027F81A22D2
:1010B00002210120FFF7CAFF10BD70B504460025CC
:1010C000FFF73EFCA220FFF79DFC00BFFFF770FC7E
:1010D0000028FBD12046FFF795FCFFF769FCFFF7DE
:1010E0002FFCA320FFF78EFCFFF762FC0020FFF728
:1010F000D5FB0546FFF740FC284670BD2DE9F041C1
:1011000006460C4615463046FFF76BF9074639464A
:10111000042000F05FF82046FFF763F907463946E0
:10112000032000F057F82846FFF75BF907463946D9
:10113000022000F04FF8BDE8F081000010B5022059
:10114000FFF7BBFF224988700320FFF7B6FF204955
:1011500048700420FFF7B1FF1D4908700520FFF714
:10116000ACFF1B49C8710620FFF7A7FF184908729A
:101170000720FFF7A2FF164988710820FFF79DFF9F
:10118000134988808878FFF77CF81149887048787F
:10119000FFF777F80E4948700878FFF772F80C49A6
:1011A0000870087AFFF76DF809490872C879FFF7E7
:1011B00068F80749C8718879FFF763F804498871AE
:1011C0008988C8B2FFF75DF80149888010BD00002A
:1011D000DC14002070B505460C46FFF7B1FBA220D9
:1011E000FFF710FC00BFFFF7E3FB0028FBD1284608
:1011F000FFF708FCFFF7DCFB2046FFF703FCFFF7D7
:10120000D7FBFFF7B9FB70BD7047000029B1064A54
:10121000D2690243044BDA6104E0034AD269824393
:10122000014BDA61704700000010024029B1064A04
:1012300092690243044B9A6104E0034A9269824333
:10124000014B9A6170470000001002400249098872
:101250008143014A118070470428004010B50520E1
:10126000FFF7F4FF00F002F810BD000000BF0348D4
:10127000008800F020000028F9D0704704280040C2
:1012800000487047B814002000487047DC14002064
:10129000704710B500F002F810BD00000CB500203A
:1012A000019000903348006840F480303149086074
:1012B00000BF3048006800F4003000900198401CE6
:1012C0000190009818B90198B0F5A06FF1D12948A4
:1012D000006800F4003010B10120009001E000200F
:1012E00000900098012843D12348006840F0100086
:1012F000214908600846006820F00300086008469D
:10130000006840F0020008601A48406819494860C7
:101310000846406848600846406840F4806048607D
:101320000846406820F47C1048600846406840F455
:10133000E81048600846006840F08070086000BF10
:101340000C48006800F000700028F9D00948406897
:1013500020F00300074948600846406840F002005A
:10136000486000BF0348406800F00C000828F9D12D
:101370000CBD0000001002400020024008B50448E7
:1013800008236022002100902020FFF79BFC08BD6D
:10139000DE0F002008B5F2480078F249097888424B
:1013A00015D00020F049096881F82000EF48006856
:1013B0000078EF490860ED48006840784860EB48E5
:1013C000006880798860E9480068C079C860E9A24F
:1013D00001211420FFF7E6FDE8A204211420FFF705
:1013E000E1FDE8A201214B20FFF7DCFDE6A204218C
:1013F0004B20FFF7D7FDDC48006890F8200001285B
:1014000005D1E248006810B90120E0490860E048D1
:101410000178E0A20820FFF7C5FDDC48006858BB52
:10142000D148006890F82000032805D0CE48006815
:1014300090F82000042809D1D5480068012805D17A
:101440000420D3490860FFF701FCEBE0C6480068C0
:1014500090F82000032805D0C348006890F82000C9
:101460000428F2D1CA4800680428EED10120C849F6
:101470000860FFF7EBFBD5E0C44800680128E4D121
:10148000B948006890F8200003284BD1C048006894
:10149000012821D1C048006801280CD1B448006857
:1014A000401CB349086000220868172100F0B6FA12
:1014B000AF490860B6E0B84800680228C5D1AC481A
:1014C0004068401CAA494860002248683B2100F05F
:1014D000A5FAA7494860A5E0AD4800680428B4D142
:1014E000AD48006801280CD1A1488068401CA04983
:1014F0008860012288680C2100F090FA9C4988607D
:1015000090E0A548006802289FD19948C068401C17
:101510009749C8600122C8681F2100F07FFA9449EA
:10152000C8607FE09048006890F8200004284BD104
:1015300097480068012821D19748006801280CD1FC
:101540008B480068401E8A490860002208681721FD
:1015500000F064FA8649086064E08F480068022859
:1015600060D183484068401E814948600022486835
:101570003B2100F053FA7E49486053E084480068FC
:1015800004284FD18448006801280CD1784880682D
:10159000401E77498860012288680C2100F03EFADD
:1015A000734988603EE07C48006802283AD1704860
:1015B000C068401E6E49C8600122C8681F2100F043
:1015C0002DFA6B49C8602DE06748006890F820004C
:1015D000012827D1FFF73AFB00206349096881F809
:1015E00020006D480068401C6B4908600846006890
:1015F000022817DD002008605D4A1179107800226A
:10160000FFF77CFD5A48027B017A0120FFF71EFD9F
:10161000642000F05FFA00205349096881F8200037
:101620005A4908605948006801280FD1584A127871
:10163000521CD1B2584A1278521EC2EBC20202EBBF
:1016400042023B32D0B255A2FFF7ACFC48480068DA
:101650000A2190FBF1F052490860454800680A21D0
:1016600090FBF1F201FB12004E49086040484068CF
:101670000A2190FBF1F04C4908603D4840680A217E
:1016800090FBF1F201FB120048490860384880687D
:101690000A2190FBF1F046490860354880680A212C
:1016A00090FBF1F201FB1200424908603048C0682B
:1016B0000A2190FBF1F0404908602D48C0680A21DA
:1016C00090FBF1F201FB12003C4908600820012365
:1016D00000903348194602683B20FFF721FC0820A0
:1016E000012300902F48194602684220FFF718FC9A
:1016F0000820012300902C48194602685220FFF769
:101700000FFC0820012300902848194602685A203F
:10171000FFF706FC082001230090254804210268F9
:101720003B20FFF7FDFB0820012300902148042106
:1017300002684220FFF7F4FB0820012300901E48B6
:10174000042102685220FFF7EBFB082001230090E0
:101750001A48042102685A20FFF7E2FB08BD000086
:101760007914002078140020E0130020E4130020F6
:10177000E814002054696D65000000004461746540
:10178000000000003A0000002D000000901400202E
:101790008C1400203E000000941400202D2D000029
:1017A000A0140020A4140020981400209C140020F1
:1017B000A8140020AC140020B0140020B4140020A1
:1017C000042808D14FF0E021096941F004014FF0ED
:1017D000E022116107E04FF0E021096921F00401E6
:1017E0004FF0E022116170477047000010B51348B8
:1017F000006840F00100114908600846406810493F
:1018000008400E494860084600680E4908400B49E8
:1018100008600846006820F4802008600846406898
:1018200020F4FE0048604FF41F008860FFF731FD90
:101830004FF000600449086010BD00000010024035
:101840000000FFF8FFFFF6FE08ED00E010B50121F3
:10185000880700F028F840B10121880700F014F84B
:1018600002480068401C0149086010BD28000020A3
:1018700021B1028842F08002028004E002884FF623
:101880007F731A4002807047CA430282704721B1B9
:10189000028842F00102028004E002884FF6FE73E3
:1018A0001A400280704730B5024600200023002411
:1018B000158A05EA0103958905EA010413B10CB103
:1018C000012000E0002030BD70B50024002200237C
:1018D000058C4FF6FE7635400584028C8388048B98
:1018E0004FF68F752C40B51E2C400D882C43751E6D
:1018F0002A400D892A434D882A43144DA8420BD013
:10190000134DA84208D0134DA84205D0124DA8424D
:1019100002D0124DA84213D14FF6F7752A404D89D7
:101920002A434FF6FB752A408D882A434FF6FF6500
:101930002B404FF6FF552B408D892B43CD892B43F0
:1019400083800483CD888586028470BD002C01408D
:101950000034014000400140004401400048014083
:101960000A460021018B4FF6F7731940114301839A
:1019700070470000002202881D4B98420ED01D4B7C
:1019800098420BD0B0F1804F08D01B4B984205D045
:101990001A4B984202D01A4B984204D14FF68F73DB
:1019A0001A404B881A43174B984207D0164B98425F
:1019B00004D04FF6FF431A40CB881A4302808B882D
:1019C00083850B8803850A4B98420BD0094B9842BC
:1019D00008D00E4B984205D00D4B984202D00D4BCB
:1019E000984201D10B7A038601238382704700005D
:1019F000002C014000340140000400400008004079
:101A0000000C004000100040001400400040014065
:101A1000004401400048014000BFFEE7904201DA67
:101A2000084602E0884200DD1046704708B50121F3
:101A30000820FFF7FBFB4FF47040ADF80000482092
:101A40008DF8030003208DF8020069460E48FEF76A
:101A50003BFD00200D49087600210C484176C1610C
:101A600000200A490872002108484172C160002024
:101A7000064908740021054841744161002003496A
:101A800008704870486008BD000C0140B814002080
:101A900010B56FF00400FFF793FE0A4800680A498A
:101AA000B0FBF1F0094908700846007800EB4001EE
:101AB000C1EBC0104FF6FF7101EAC0000449088075
:101AC00010BD00000000002000127A001400002069
:101AD000160000200146114A12884A434FF0E023C5
:101AE0005A6100229A611A46126942F001021A6193
:101AF00000BF4FF0E022106900F001021AB100F4BB
:101B00008032002AF5D04FF0E022126922F0010263
:101B10004FF0E0231A6100229A61704716000020FE
:101B20004FF4A060FFF788F8FFF7B2FFFEF7A0FEC2
:101B3000FFF7ABFA092143F63F00FEF791FFFFF7ED
:101B400075FFFFF7FBF805E0FFF7F8FAFEF7A6FBD5
:101B5000FFF70CF8F8E710B50246012000E050430B
:101B60000B00A1F10104E1B2F9D110BD00000000A9
:101B700000000000002F0000000007000700001414
:101B80007F147F1400242A7F2A1200626408132322
:101B900000364955225000000503000000001C22B9
:101BA0004100000041221C000014083E08140008F7
:101BB000083E0808000000A06000000808080808A7
:101BC000000060600000002010080402003E51493F
:101BD000453E0000427F40000042615149460021DD
:101BE00041454B31001814127F10002745454539F7
:101BF000003C4A4949300001710905030036494952
:101C0000493600064949291E00003636000000000A
:101C10005636000000081422410000141414141455
:101C200000004122140800020151090600324959FE
:101C3000513E007C1211127C007F49494936003E1A
:101C400041414122007F4141221C007F49494941D5
:101C5000007F09090901003E4149497A007F0808CF
:101C6000087F0000417F4100002040413F01007F8C
:101C700008142241007F40404040007F020C027F58
:101C8000007F0408107F003E4141413E007F09096A
:101C90000906003E4151215E007F09192946004690
:101CA000494949310001017F0101003F4040403F67
:101CB000001F2040201F003F4038403F00631408B1
:101CC000146300070870080700615149454300008C
:101CD0007F41410000552A552A55000041417F00AF
:101CE00000040201020400404040404000000102A4
:101CF0000400002054545478007F4844443800388D
:101D00004444442000384444487F00385454541814
:101D100000087E0901020018A4A4A47C007F080426
:101D200004780000447D4000004080847D00007FF6
:101D3000102844000000417F4000007C0418047813
:101D4000007C0804047800384444443800FC24240F
:101D500024180018242418FC007C080404080048F7
:101D60005454542000043F444020003C4040207C18
:101D7000001C2040201C003C4030403C0044281007
:101D80002844001CA0A0A07C004464544C441414BB
:101D900014141414000000000000000000000000F3
:101DA00000000000000000F8000000000000003308
:101DB0003000000000100C06100C060000000000AF
:101DC0000000000040C07840C0784000043F040498
:101DD0003F040400007088FC08300000001820FF59
:101DE000211E0000F008F000E018000000211C0394
:101DF0001E211E0000F00888700000001E21232410
:101E00001927211010160E0000000000000000002D
:101E100000000000000000E01804020000000007BD
:101E20001820400000020418E000000000402018C4
:101E300007000000404080F0804040000202010F97
:101E400001020200000000F0000000000101011F7B
:101E500001010100000000000000000080B07000DF
:101E6000000000000000000000000000000101016F
:101E700001010101000000000000000000303000FE
:101E800000000000000000008060180400601806D8
:101E90000100000000E010080810E000000F102012
:101EA00020100F00001010F8000000000020203F5C
:101EB00020200000007008080888700000302824E6
:101EC0002221300000300888884830000018202087
:101ED00020110E000000C02010F8000000070424AC
:101EE000243F240000F808888808080000192120F1
:101EF00020110E0000E0108888180000000F11204B
:101F000020110E0000380808C83808000000003F03
:101F1000000000000070880808887000001C222162
:101F200021221C0000E010080810E000000031220F
:101F300022110F00000000C0C000000000000030AF
:101F40003000000000000080000000000000806001
:101F50000000000000008040201008000001020482
:101F60000810200040404040404040000404040469
:101F70000404040000081020408000000020100825
:101F800004020100007048080808F000000000305A
:101F900036010000C030C828E810E00007182724E8
:101FA00023140B000000C038E0000000203C230296
:101FB0000227382008F8888888700000203F2020F9
:101FC00020110E00C030080808083800071820202B
:101FD0002010080008F808080810E000203F202022
:101FE00020100F0008F88888E8081000203F202003
:101FF0002320180008F88888E8081000203F2000F7
:1020000003000000C030080808380000071820202E
:10201000221E020008F808000008F808203F2101ED
:1020200001213F20000808F8080800000020203F98
:102030002020000000000808F8080800C080808008
:102040007F00000008F888C028180800203F200101
:102050002638200008F8080000000000203F20205B
:102060002020300008F8F800F8F80800203F003F72
:10207000003F200008F830C00008F808203F20008A
:1020800007183F00E01008080810E0000F1020209B
:1020900020100F0008F808080808F000203F210170
:1020A00001010000E01008080810E0000F182424C7
:1020B00038504F0008F8888888887000203F20003A
:1020C000030C3020007088080808380000382021F0
:1020D00021221C00180808F8080818000000203FFA
:1020E0002000000008F808000008F808001F202061
:1020F00020201F000878880000C838080000073832
:102100000E010000F80800F80008F800033C070082
:10211000073C0300081868808068180820302C03EA
:10212000032C30200838C800C83808000000203FC1
:102130002000000010080808C838080020382621B0
:1021400020201800000000FE020202000000007FB4
:1021500040404000000C30C00000000000000001C2
:102160000638C00000020202FE00000000404040AD
:102170007F000000000004020202040000000000D2
:10218000000000000000000000000000808080804F
:102190008080808000020204000000000000000037
:1021A00000000000000080808080000000192422D0
:1021B00022223F2008F8008080000000003F11200C
:1021C00020110E000000008080800000000E112011
:1021D00020201100000000808088F800000E1120EF
:1021E00020103F200000808080800000001F2222FD
:1021F00022221300008080F0888888180020203F69
:10220000202000000000808080808000006B94947B
:102210009493600008F8008080800000203F210037
:1022200000203F2000809898000000000020203F00
:1022300020200000000000809898000000C08080EE
:10224000807F000008F8000080808000203F24028A
:102250002D302000000808F8000000000020203F7A
:10226000202000008080808080808000203F20002F
:102270003F20003F8080008080800000203F2100C0
:1022800000203F200000808080800000001F202070
:1022900020201F00808000808000000080FFA1209F
:1022A00020110E000000008080808000000E1120B0
:1022B00020A0FF80808080008080800020203F213F
:1022C00020000100000080808080800000332424F2
:1022D00024241900008080E0808000000000001F9E
:1022E000202000008080000000808000001F20204F
:1022F00020103F20808080000080808000010E3010
:102300000806010080800080008080800F300C0370
:102310000C300F0000808000808080000020312E73
:102320000E312000808080000080808080818E704F
:102330001806010000808080808080000021302C01
:102340002221300000000000807C0202000000001A
:10235000003F404000000000FF00000000000000BF
:10236000FF0000000002027C800000000040403FAF
:102370000000000000060101020204040000000049
:1023800000000000A423000800000020B814000092
:1023900028010008A8280008B8140020A0060000A2
:1023A0008C010008500600A24A040001000A18012E
:1023B0000203040607080900011008F848484849C4
:1023C0004E4A060210781D400840201807007E2261
:1023D0000102117E3E000F104042445CC8407F4025
:1023E000C0504E4460405E328042100500003F40C5
:1023F000010111613007E0F0F8F0060F0112060B41
:102400001005E00000FF01619C410C6005C7C7EFAB
:10241000C730110B0212C72430070F1F3F1FC0E047
:102420000112C00B660F0031010111F6416CA508C5
:10243000A154A16C011C24916CF53DC1D801106C14
:102440005006C0C0E0C03801000512070F07076042
:10245000A1D8915BF1D8011E6C25CD616C011AD811
:10246000051E4425B0C54405108C1207CD01226C11
:10247000051E44A91C051680A16C154F023AC0D850
:10248000011E6C2988C16C0938880522B009428870
:102490000D266003C91C0134D80D22CC0309261C6B
:1024A000051F441E8016037005C08C1E3F01231EAD
:1024B0008C126280D7C5458112011A1CC4071F3FC8
:1024C0007F7F3F1F576112BC07F8FCFEFEFCF83906
:1024D000057112013670700901030707033178FC9A
:1024E00001237831120E1401A9057280E00D10C588
:1024F0000501106601241C0110F20112E001487070
:10250000C201E006140CC0013BE05A80A739ABC6FB
:102510009FC016F97161019187013BCEB5C0CE30E5
:10252000BE050169E0719171E00644F9C00A1430FA
:10253000A009108E0E44808003026D9FE00915A053
:102540000D1060040E440C6E03B1E00A10805105BA
:102550006AC00169E00D1080030E60F940050D525C
:1025600080030D8540050D5700070E269F40050589
:102570005CC0016EE00D6E80034DAB0A2F81810DB2
:102580000A2C07030300003C7E37070F107E3CA98E
:102590000C2D5A061D750B130103010321010001C7
:1025A0000E10804A0A3D3C08011F381EC02E0A103A
:1025B00007FC7E3F1F3F7E711C04E0C08F790B003B
:1025C0000A1E000010387C3E1F0F077B1C05FCFE16
:1025D000FFFFC40C520F3D73C1830B9004C0801EDB
:1025E00001E16E133E7C2E1D560C9E7FC10A15879D
:1025F0008148AC09C7EFFFFFFE7C38105807F00C8C
:10260000081C3E7FFFFFE7C3E1F0F89D600480C037
:10261000F00123F9FF56FD5109317A0111380112F9
:1026200016FDD50D1F040E26037C04FFF9F0DC0413
:10263000012538FDE905351F012E38051B836EC0C5
:1026400088080A2180251F2070D2032BFFFE5B150E
:10265000807007E0F0F0F8F8FF0172F81532FC2501
:10266000000412F87020C4428F2E2564640683C3D0
:10267000C1E1E1793805E1E1C1C300414EC68F8176
:10268000359B12F801193219341D0E0343F0FC4832
:102690001A0F411943420F381EFC690E2F010F4DCE
:1026A0000A22FE2E11933EF07B0E3DCE0C121F012E
:1026B00019031C04FFFFF0F204713121CA11B66145
:1026C0004F190D22F081227F2E3D480EC9EF42F1B5
:1026D000EF39684C05C3838787280D10050F0F87D6
:1026E00087CF2D0C03450E0E12F1960A4908137F71
:1026F0003FFD21B621928540721F15323F2504040B
:10270000211F0E04936E036B08092C101C0480809B
:10271000C04A1025C381013DBD057FC0807F070CE5
:102720000414808080EE032C09FE7E3F9F8F8F87EC
:10273000075C0411011406818181C1C1CA2C0AE31E
:10274000E3E3E7C7CFCF9FBF860315A9A8059F0F77
:1027500007026A25631F7F1FCB04167CE01C0487D9
:102760000707A4033F7E3E94034C04E3C383150E86
:102770001E01B1042408070F7FFEFCF107D18FFC76
:10278000F8041125F94E7F360E1C0DC0C3071F7FBC
:10279000FEF8E0C1800C3CE7043C077871E3C78F8A
:1027A0001F14043DCB0625C03E7F081125EC9EE09A
:1027B000620C39E529B33A038B1D4E0310157CF8E2
:1027C000F1E3C78E9C1D3F7F7E7C7001078FDFFF8A
:1027D000FCFCB94E03080F396C7D3610293C1C05F2
:1027E000FCF0C08FCB032DA1045DCB03140D01833E
:1027F00083878F1F1E3C7C78F0F0001C04C7C3CF7A
:102800007B0425291168AC047F3F0770112004C0A8
:10281000E0F31410077FFEFDF9F3F72B3C05CF8F93
:102820008F8F960A4DA405178080482C06E1E3F3AC
:10283000F9FD50050D1153047E01CC0535286A07BA
:10284000D4410129AC314D0D1D75053D4A062C05BD
:10285000FD050008E81331C22C080400080203013A
:102860000507062C087D1300080301027E131007DC
:1028700000350B00080401219C12192412050125C2
:10288000D11295241D1F142607451005FD0A0008C6
:102890000B22080C121930110B220918124D3C0D95
:0828A0003693040D2ADA04004E
:04000005080000ED02
:00000001FF
